:100000000C9463000C948B000C948B000C948B006C
:100010000C948B000C948B000C948B000C948B0034
:100020000C948B000C948B000C948B000C948B0024
:100030000C948B000C948B000C948B000C948B0014
:100040000C946D030C948B000C9409050C945705CB
:100050000C948B000C948B000C948B000C948B00F4
:100060000C948B000C948B000000000024002700EF
:100070002A0000000000250028002B0000000000DE
:1000800023002600290004040404040404040202DA
:100090000202020203030303030301020408102007
:1000A0004080010204081020010204081020000012
:1000B0000007000201000003040600000000000029
:1000C00000008D00C30611241FBECFEFD8E0DEBFB5
:1000D000CDBF11E0A0E0B1E0EEEAF1E102C0059091
:1000E0000D92AA35B107D9F712E0AAE5B1E001C037
:1000F0001D92A232B107E1F710E0C6ECD0E004C0D7
:100100002297FE010E94D108C23CD107C9F70E9484
:1001100019070C94D5080C940000CF92EF920F931E
:100120008AE591E06CE04BE025E004E053E0E52E49
:1001300032E0C32E0E9434030F91EF90CF900895C8
:100140008F929F92AF92BF92CF92DF92EF92FF92E7
:100150000F931F938EE00E9453048C018FE00E9446
:1001600053047C0180E10E9453046C0181E10E94F0
:1001700053049C01C80162E070E00E948608B62E1C
:10018000A72EC70162E070E00E948608F62EE72ED7
:10019000C60162E070E00E948608D62EC72EC90113
:1001A00062E070E00E948608962E872E0AE511E034
:1001B000C80160E040E00E944702C80160E071E0D1
:1001C0000E946408C8016B2D7A2D4AE050E00E941D
:1001D0003208C80160E041E00E944702C80167E0C0
:1001E00071E00E946408C8016F2D7E2D4AE050E046
:1001F0000E943208C80160E042E00E944702C80144
:100200006EE071E00E946408C8016D2D7C2D4AE00B
:1002100050E00E943208C80160E043E00E944702BB
:10022000C80165E171E00E946408C801692D782D5C
:100230004AE050E00E94320800E012E0C8016B2D55
:100240007A2D4AE050E00E943208C8016F2D7E2DC1
:100250004AE050E00E943208C8016D2D7C2D4AE032
:1002600050E00E943208C801692D782D4AE050E024
:100270000E94450868EC70E080E090E00E94B503C1
:100280001F910F91FF90EF90DF90CF90BF90AF90B4
:100290009F908F9008950F931F9380E092E040E825
:1002A00055E260E070E00E9492050AE511E0C801A5
:1002B00064E144E020E00E947E02C80160E040E08A
:1002C0000E944702C8016CE171E00E946408C80105
:1002D00060E041E00E944702C8016CE271E00E94C8
:1002E000640860ED77E080E090E00E94B503C8010B
:1002F0000E9476021F910F9108950F931F938C0116
:10030000FC01868160E00E94B40481E090E00E94DC
:100310000E04F801868161E00E94B40481E090E05F
:100320000E940E04F801868160E00E94B40484E615
:1003300090E00E940E041F910F910895CF92DF92DA
:10034000EF92FF920F931F93CF93DF93D82EC92E76
:10035000282F392FC9018C01C0E0D0E0E62EFF2400
:10036000F801878161E00E947504B7010C2E02C07C
:10037000759567950A94E2F76170F80187810E948C
:10038000B40421960F5F1F4FC830D10549F78D2D5A
:100390009C2D0E947D01DF91CF911F910F91FF90C5
:1003A000EF90DF90CF900895CF92DF92EF92FF927F
:1003B0000F931F93CF93DF93D82EC92E282F392F59
:1003C000C9018C01C0E0D0E0E62EFF24F80187814E
:1003D00061E00E947504B7010C2E02C07595679507
:1003E0000A94E2F76170F80187810E94B4042196B3
:1003F0000F5F1F4FC430D10549F78D2D9C2D0E94F2
:100400007D01DF91CF911F910F91FF90EF90DF90D1
:10041000CF9008951F93CF93DF93EC01162F8C811B
:10042000642F0E94B4048D818F3F19F060E00E9418
:10043000B4048F8584FF05C0CE01612F0E949E0108
:100440000EC0612F70E084E0759567958A95E1F79D
:10045000CE010E94D401CE01612F0E94D401DF9110
:10046000CF911F91089541E00E940A0281E090E03F
:10047000089540E00E940A020895FC016089862FD9
:100480008460808B6C60CF010E9439020895DF93F5
:10049000CF93CDB7DEB728970FB6F894DEBF0FBE67
:1004A000CDBF9C01FE013196A2E4B1E088E00D9041
:1004B00001928150E1F7F9018389481710F0482F24
:1004C0004150E42FF0E0EE0FFF1FEC0FFD1F818184
:1004D000680F6068C9010E94390228960FB6F89427
:1004E000DEBF0FBECDBFCF91DF91089561E00E94C6
:1004F000390280ED97E00E940E040895CF93DF93B8
:10050000EC01423018F08F8588608F874B8B1C8AF6
:10051000222329F0413019F48F8584608F8780E58C
:1005200093EC0E940E048C8160E00E94B4048E81E2
:1005300060E00E94B4048D818F3F19F060E00E945A
:10054000B4046F8564FD1DC0CE0163E00E94D40138
:1005500084E991E10E940E04CE0163E00E94D4017F
:1005600084E991E10E940E04CE0163E00E94D4016F
:1005700086E990E00E940E04CE0162E00E94D40160
:1005800016C06062CE010E94390284E991E10E94A6
:100590000E046F856062CE010E94390286E990E008
:1005A0000E940E046F856062CE010E9439026F8541
:1005B0006062CE010E94390284E0888BCE010E94E5
:1005C0003D02CE010E94760282E0898BCE0166E078
:1005D0000E943902DF91CF9108956F927F928F929E
:1005E000AF92CF92EF920F931F93DF93CF93CDB73C
:1005F000DEB73C01162F842FF30144832583068345
:10060000E782C086A18682869D8593879E85948792
:100610009F8595879889968761E00E947504F3010C
:1006200085818F3F19F061E00E947504F301868196
:1006300061E00E947504112319F0F301178603C0CD
:1006400080E1F3018787C30160E141E020E00E947F
:100650007E02CF91DF911F910F91EF90CF90AF90DD
:100660008F907F906F9008958F92AF92CF92EF927C
:100670000F931F93CF93DF93DC01362F542F722FEC
:10068000102FAE2C8C2C13961C921E9212978EE378
:1006900091E011969C938E9300D000D0EDB7FEB7F9
:1006A0003196CDB7DEB71982118212821382CD0145
:1006B00061E0432F2FEF052FE72EC12E0E94ED02A0
:1006C0000F900F900F900F90DF91CF911F910F918E
:1006D000EF90CF90AF908F9008951F920F920FB62A
:1006E0000F9211242F933F938F939F93AF93BF93B8
:1006F0008091730190917401A0917501B091760180
:10070000309177010196A11DB11D232F2D5F2D374B
:1007100020F02D570196A11DB11D209377018093E4
:10072000730190937401A0937501B0937601809149
:100730006F0190917001A0917101B09172010196C9
:10074000A11DB11D80936F0190937001A093710161
:10075000B0937201BF91AF919F918F913F912F9173
:100760000F900FBE0F901F9018959B01AC017FB7A3
:10077000F89480916F0190917001A0917101B091F6
:10078000720166B5A89B05C06F3F19F00196A11DC7
:10079000B11D7FBFBA2FA92F982F8827860F911DD3
:1007A000A11DB11D62E0880F991FAA1FBB1F6A958A
:1007B000D1F7BC012DC0FFB7F89480916F019091E3
:1007C0007001A0917101B0917201E6B5A89B05C0BE
:1007D000EF3F19F00196A11DB11DFFBFBA2FA92F40
:1007E000982F88278E0F911DA11DB11DE2E0880F63
:1007F000991FAA1FBB1FEA95D1F7861B970B885E2E
:100800009340C8F2215030404040504068517C4FE6
:10081000211531054105510571F60895019739F00B
:10082000880F991F880F991F02970197F1F7089574
:10083000789484B5826084BD84B5816084BD85B5BB
:10084000826085BD85B5816085BDEEE6F0E0808182
:1008500081608083E1E8F0E01082808182608083A3
:10086000808181608083E0E8F0E080818160808326
:10087000E1EBF0E0808184608083E0EBF0E0808158
:1008800081608083EAE7F0E08081846080838081FA
:1008900082608083808181608083808180688083A2
:1008A0001092C1000895982F8E3008F09E509770D6
:1008B000809139018295880F880F807C892B8093E5
:1008C0007C0080917A00806480937A0080917A0025
:1008D00086FDFCCF2091780040917900942F80E034
:1008E00030E0282B392BC9010895CF93DF93482F8F
:1008F00050E0CA0186569F4FFC0134914A575F4F22
:10090000FA018491882369F190E0880F991FFC0116
:10091000E859FF4FA591B491FC01EE58FF4FC591E6
:10092000D491662351F42FB7F8948C91932F90951E
:1009300089238C93888189230BC0623061F42FB79F
:10094000F8948C91932F909589238C938881832B95
:1009500088832FBF06C09FB7F8948C91832B8C930C
:100960009FBFDF91CF910895482F50E0CA01825573
:100970009F4FFC012491CA0186569F4FFC01949120
:100980004A575F4FFA013491332309F440C02223C0
:1009900051F1233071F0243028F42130A1F02230BD
:1009A00011F514C02630B1F02730C1F02430D9F44D
:1009B00004C0809180008F7703C0809180008F7D7C
:1009C0008093800010C084B58F7702C084B58F7D7E
:1009D00084BD09C08091B0008F7703C08091B000C2
:1009E0008F7D8093B000E32FF0E0EE0FFF1FEE58F5
:1009F000FF4FA591B4912FB7F894662321F48C9101
:100A00009095892302C08C91892B8C932FBF0895D8
:100A100008951F920F920FB60F9211242F933F93B8
:100A20004F938F939F93EF93FF938091C00082FD2C
:100A30001DC04091C6002091B8013091B9012F5FCF
:100A40003F4F2F7330708091BA019091BB012817EE
:100A5000390771F0E091B801F091B901E858FE4F03
:100A600040833093B9012093B80102C08091C60041
:100A7000FF91EF919F918F914F913F912F910F9007
:100A80000FBE0F901F901895E0910C02F0910D028F
:100A9000E05CFF4F8191919120813181821B930B0A
:100AA0008F739070892B11F00E94080508951F9292
:100AB0000F920FB60F9211242F933F938F939F9312
:100AC000EF93FF932091FC013091FD018091FE0195
:100AD0009091FF012817390731F48091C1008F7D73
:100AE0008093C10014C0E091FE01F091FF01E45435
:100AF000FE4F20818091FE019091FF0101968F733E
:100B000090709093FF018093FE012093C600FF91A7
:100B1000EF919F918F913F912F910F900FBE0F906A
:100B20001F901895AF92BF92DF92EF92FF920F93B2
:100B30001F93CF93DF93EC017A018B01DD244030CA
:100B400081EE580780E0680780E0780711F0DD2427
:100B5000D39491E0A92EB12CEC89FD89DD2069F0B8
:100B6000C50108A002C0880F991F0A94E2F780838C
:100B700060E079E08DE390E005C0108260E874E801
:100B80008EE190E0A80197010E9499082150304021
:100B900040405040569547953795279580E1203045
:100BA000380720F0DD2011F0DD24D6CFE889F9895F
:100BB0003083EA89FB89208319A2EE89FF8940816D
:100BC00021E030E0C9010C8C02C0880F991F0A9403
:100BD000E2F7482B4083EE89FF894081C9010D8CE3
:100BE00002C0880F991F0A94E2F7482B4083EE89D0
:100BF000FF894081C9010E8C02C0880F991F0A9499
:100C0000E2F7482B4083EE89FF8980810F8C02C078
:100C1000220F331F0A94E2F7209528232083DF91C7
:100C2000CF911F910F91FF90EF90DF90BF90AF9009
:100C30000895DC011C96ED91FC911D97E05CFF4F3F
:100C40002191319180819181281B390B2F73307054
:100C5000C9010895DC011C96ED91FC911D97E05CA3
:100C6000FF4F20813181E054F040DF01AE5BBF4F88
:100C70008D919C9111972817390719F42FEF3FEFA9
:100C800007C08D919C91E80FF91F8081282F30E0DB
:100C9000C9010895DC011C96ED91FC911D97E05C63
:100CA000FF4F20813181E054F040DF01AE5BBF4F48
:100CB0008D919C9111972817390719F42FEF3FEF69
:100CC00010C08D919C911197E80FF91F20818D9193
:100CD0009C91119701968F73907011969C938E93AF
:100CE00030E0C9010895DC0191968C919197882399
:100CF00039F05496ED91FC915597808186FFF9CF9C
:100D000091961C920895CF93DF93EC01EE85FF85B9
:100D1000E05CFF4F20813181E054F0402F5F3F4F76
:100D20002F733070DF01AE5BBF4F8D919C91119797
:100D300028173907D1F3E05CFF4F80819181E0549F
:100D4000F040E80FF91F6083EE85FF85E05CFF4F00
:100D500031832083EE89FF89208181E090E00F8C30
:100D600002C0880F991F0A94E2F7282B208381E0A4
:100D700089A3EC89FD8980818064808381E090E093
:100D8000DF91CF910895109203021092020288EE33
:100D900093E0A0E0B0E08093040290930502A0935A
:100DA0000602B09307028EE491E0909301028093D3
:100DB000000288E791E090930D0280930C028CEB87
:100DC00091E090930F0280930E0285EC90E0909357
:100DD00011028093100284EC90E0909313028093B0
:100DE000120280EC90E0909315028093140281EC43
:100DF00090E0909317028093160282EC90E090931B
:100E000019028093180286EC90E090931B02809365
:100E10001A0284E080931C0283E080931D0287E025
:100E200080931E0285E080931F0281E08093200260
:100E30000895CF93DF930E9418040E944B01C4E4ED
:100E4000D5E00E94A0002097E1F30E944405F9CF6D
:100E5000CF92DF92EF92FF920F931F93CF93DF9386
:100E60007C016B018A01C0E0D0E00FC0D6016D911A
:100E70006D01D701ED91FC910190F081E02DC7014A
:100E80000995C80FD91F015010400115110571F7C0
:100E9000CE01DF91CF911F910F91FF90EF90DF90E6
:100EA000CF900895EF92FF920F931F938C01DC0176
:100EB000ED91FC910190F081E02D6DE009957C01B0
:100EC000D801ED91FC910190F081E02DC8016AE01C
:100ED00009959C012E0D3F1DC9011F910F91FF9097
:100EE000EF900895CF93DF93EC016115710519F42C
:100EF00020E030E00FC0DB010D900020E9F71197F2
:100F0000A61BB70BE881F9810280F381E02DAD01CA
:100F100009959C01C901DF91CF9108954F925F928D
:100F20007F928F929F92AF92BF92CF92DF92EF9279
:100F3000FF920F931F93DF93CF93CDB7DEB7A197A7
:100F40000FB6F894DEBF0FBECDBF2C01742ECB01BF
:100F5000223008F42AE019A231E2C32ED12CCC0EA3
:100F6000DD1E822E9924AA24BB24672D752FA5018E
:100F700094010E94990879018A01C801B701A5016D
:100F800094010E946708472D461B0894C108D108A8
:100F90004A3014F4405D01C0495CF6014083E1141D
:100FA000F1040105110521F07E2C5F2DC801DDCF74
:100FB000C201B6010E947207A1960FB6F894DEBF77
:100FC0000FBECDBFCF91DF911F910F91FF90EF909A
:100FD000DF90CF90BF90AF909F908F907F905F9069
:100FE0004F900895CF92DF92EF92FF920F931F934D
:100FF000CF93DF93EC016A017B012115310541F4A8
:10100000E881F9810190F081E02D642F09951FC0DE
:101010002A303105D1F477FF17C0E881F9810190BA
:10102000F081E02D6DE209958C0144275527BA0126
:101030004C195D096E097F09CE012AE00E948E07D6
:101040009801280F391F04C02AE00E948E079C01D6
:10105000C901DF91CF911F910F91FF90EF90DF9029
:10106000CF900895EF92FF920F931F937B019A0107
:101070000027F7FC0095102FB801A7010E94F20786
:101080001F910F91FF90EF900895CF92DF92EF9212
:10109000FF920F931F936C017B019A010027F7FCCD
:1010A0000095102FB801A7010E94F2078C01C6011C
:1010B0000E945207080F191FC8011F910F91FF903E
:1010C000EF90DF90CF9008950E9472070895629F7D
:1010D000D001739FF001829FE00DF11D649FE00D30
:1010E000F11D929FF00D839FF00D749FF00D659F91
:1010F000F00D9927729FB00DE11DF91F639FB00D90
:10110000E11DF91FBD01CF011124089597FB092EA0
:1011100007260AD077FD04D02ED006D000201AF47E
:10112000709561957F4F0895F6F7909581959F4F43
:101130000895A1E21A2EAA1BBB1BFD010DC0AA1F18
:10114000BB1FEE1FFF1FA217B307E407F50720F030
:10115000A21BB30BE40BF50B661F771F881F991FAB
:101160001A9469F760957095809590959B01AC01F4
:10117000BD01CF010895AA1BBB1B51E107C0AA1FE7
:10118000BB1FA617B70710F0A61BB70B881F991F28
:101190005A95A9F780959095BC01CD010895EE0F61
:0E11A000FF1F0590F491E02D0994F894FFCF05
:1011AE0054454D50313A0054454D50323A00544555
:1011BE004D50333A0054454D50343A0057656C63E8
:1011CE006F6D6520746F2044617461005472616E9E
:1011DE00736D697373696F6E000100000000330256
:1011EE002807000040001400540000000000830691
:0A11FE00280719064A062A067306A0
:00000001FF
